{
  "contractName": "Election",
  "abi": [
    {
      "inputs": [],
      "stateMutability": "nonpayable",
      "type": "constructor"
    },
    {
      "anonymous": false,
      "inputs": [
        {
          "indexed": true,
          "internalType": "uint256",
          "name": "_candidateId",
          "type": "uint256"
        }
      ],
      "name": "Voted",
      "type": "event"
    },
    {
      "inputs": [],
      "name": "candidatesCount",
      "outputs": [
        {
          "internalType": "uint256",
          "name": "",
          "type": "uint256"
        }
      ],
      "stateMutability": "view",
      "type": "function"
    },
    {
      "inputs": [],
      "name": "electionState",
      "outputs": [
        {
          "internalType": "enum Election.State",
          "name": "",
          "type": "uint8"
        }
      ],
      "stateMutability": "view",
      "type": "function"
    },
    {
      "inputs": [],
      "name": "owner",
      "outputs": [
        {
          "internalType": "address",
          "name": "",
          "type": "address"
        }
      ],
      "stateMutability": "view",
      "type": "function"
    },
    {
      "inputs": [],
      "name": "votersCount",
      "outputs": [
        {
          "internalType": "uint256",
          "name": "",
          "type": "uint256"
        }
      ],
      "stateMutability": "view",
      "type": "function"
    },
    {
      "inputs": [],
      "name": "startElection",
      "outputs": [],
      "stateMutability": "nonpayable",
      "type": "function"
    },
    {
      "inputs": [],
      "name": "endElection",
      "outputs": [],
      "stateMutability": "nonpayable",
      "type": "function"
    },
    {
      "inputs": [
        {
          "internalType": "string",
          "name": "_name",
          "type": "string"
        }
      ],
      "name": "addCandidate",
      "outputs": [],
      "stateMutability": "nonpayable",
      "type": "function"
    },
    {
      "inputs": [
        {
          "internalType": "address",
          "name": "_voter",
          "type": "address"
        },
        {
          "internalType": "string",
          "name": "email",
          "type": "string"
        }
      ],
      "name": "addVoter",
      "outputs": [],
      "stateMutability": "nonpayable",
      "type": "function"
    },
    {
      "inputs": [
        {
          "internalType": "address",
          "name": "_current",
          "type": "address"
        }
      ],
      "name": "getRole",
      "outputs": [
        {
          "internalType": "uint256",
          "name": "",
          "type": "uint256"
        }
      ],
      "stateMutability": "view",
      "type": "function"
    },
    {
      "inputs": [
        {
          "internalType": "uint256",
          "name": "_candidateId",
          "type": "uint256"
        }
      ],
      "name": "vote",
      "outputs": [],
      "stateMutability": "nonpayable",
      "type": "function"
    },
    {
      "inputs": [
        {
          "internalType": "uint256",
          "name": "_candidateId",
          "type": "uint256"
        }
      ],
      "name": "getCandidateDetails",
      "outputs": [
        {
          "internalType": "string",
          "name": "",
          "type": "string"
        },
        {
          "internalType": "uint256",
          "name": "",
          "type": "uint256"
        }
      ],
      "stateMutability": "view",
      "type": "function"
    }
  ],
  "bytecode": "0x6080604052600060045560006005553480156200001b57600080fd5b50336000806101000a81548173ffffffffffffffffffffffffffffffffffffffff021916908373ffffffffffffffffffffffffffffffffffffffff16021790555060008060146101000a81548160ff0219169083600281111562000084576200008362000361565b5b0217905550620000cf6040518060400160405280600b81526020017f43616e64696461746520310000000000000000000000000000000000000000008152506200011b60201b60201c565b620001156040518060400160405280600b81526020017f43616e64696461746520320000000000000000000000000000000000000000008152506200011b60201b60201c565b6200056f565b3373ffffffffffffffffffffffffffffffffffffffff1660008054906101000a900473ffffffffffffffffffffffffffffffffffffffff1673ffffffffffffffffffffffffffffffffffffffff1614620001ac576040517f08c379a0000000000000000000000000000000000000000000000000000000008152600401620001a390620003f1565b60405180910390fd5b60006002811115620001c357620001c262000361565b5b600060149054906101000a900460ff166002811115620001e857620001e762000361565b5b146200022b576040517f08c379a0000000000000000000000000000000000000000000000000000000008152600401620002229062000463565b60405180910390fd5b60405180606001604052806004548152602001828152602001600081525060016000600454815260200190815260200160002060008201518160000155602082015181600101908051906020019062000286929190620002b1565b506040820151816002015590505060046000815480929190620002a990620004be565b919050555050565b828054620002bf906200053a565b90600052602060002090601f016020900481019282620002e357600085556200032f565b82601f10620002fe57805160ff19168380011785556200032f565b828001600101855582156200032f579182015b828111156200032e57825182559160200191906001019062000311565b5b5090506200033e919062000342565b5090565b5b808211156200035d57600081600090555060010162000343565b5090565b7f4e487b7100000000000000000000000000000000000000000000000000000000600052602160045260246000fd5b600082825260208201905092915050565b7f4f6e6c79206f776e65722063616e206164642063616e64696461746573000000600082015250565b6000620003d9601d8362000390565b9150620003e682620003a1565b602082019050919050565b600060208201905081810360008301526200040c81620003ca565b9050919050565b7f456c656374696f6e2068617320616c7265616479207374617274656400000000600082015250565b60006200044b601c8362000390565b9150620004588262000413565b602082019050919050565b600060208201905081810360008301526200047e816200043c565b9050919050565b7f4e487b7100000000000000000000000000000000000000000000000000000000600052601160045260246000fd5b6000819050919050565b6000620004cb82620004b4565b91507fffffffffffffffffffffffffffffffffffffffffffffffffffffffffffffffff82036200050057620004ff62000485565b5b600182019050919050565b7f4e487b7100000000000000000000000000000000000000000000000000000000600052602260045260246000fd5b600060028204905060018216806200055357607f821691505b6020821081036200056957620005686200050b565b5b50919050565b6115c9806200057f6000396000f3fe608060405234801561001057600080fd5b50600436106100a95760003560e01c8063462e91ec11610071578063462e91ec1461016757806359f784681461018357806362d73eb81461018d5780638da5cb5b1461019757806398c07938146101b5578063d9e95a98146101d3576100a9565b80630121b93f146100ae5780632280043d146100ca57806327f9fd50146100e85780632d35a8a2146101195780634427673314610137575b600080fd5b6100c860048036038101906100c39190610c89565b6101ef565b005b6100d2610483565b6040516100df9190610d2d565b60405180910390f35b61010260048036038101906100fd9190610c89565b610496565b604051610110929190610df0565b60405180910390f35b6101216105ac565b60405161012e9190610e20565b60405180910390f35b610151600480360381019061014c9190610e99565b6105b2565b60405161015e9190610e20565b60405180910390f35b610181600480360381019061017c9190610ffb565b610675565b005b61018b6107fb565b005b6101956108c0565b005b61019f610985565b6040516101ac9190611053565b60405180910390f35b6101bd6109a9565b6040516101ca9190610e20565b60405180910390f35b6101ed60048036038101906101e8919061106e565b6109af565b005b6001600281111561020357610202610cb6565b5b600060149054906101000a900460ff16600281111561022557610224610cb6565b5b14610265576040517f08c379a000000000000000000000000000000000000000000000000000000000815260040161025c90611116565b60405180910390fd5b600360003373ffffffffffffffffffffffffffffffffffffffff1673ffffffffffffffffffffffffffffffffffffffff16815260200190815260200160002060009054906101000a900460ff166102f1576040517f08c379a00000000000000000000000000000000000000000000000000000000081526004016102e890611182565b60405180910390fd5b600260003373ffffffffffffffffffffffffffffffffffffffff1673ffffffffffffffffffffffffffffffffffffffff16815260200190815260200160002060009054906101000a900460ff161561037e576040517f08c379a0000000000000000000000000000000000000000000000000000000008152600401610375906111ee565b60405180910390fd5b60008110158015610390575060045481105b6103cf576040517f08c379a00000000000000000000000000000000000000000000000000000000081526004016103c69061125a565b60405180910390fd5b6001600082815260200190815260200160002060020160008154809291906103f6906112a9565b91905055506001600260003373ffffffffffffffffffffffffffffffffffffffff1673ffffffffffffffffffffffffffffffffffffffff16815260200190815260200160002060006101000a81548160ff021916908315150217905550807f7f511e347bf51eed3be100b3194247d5207f05f3b33de7d31e3e8ee73199a04960405160405180910390a250565b600060149054906101000a900460ff1681565b606060008083101580156104ab575060045483105b6104ea576040517f08c379a00000000000000000000000000000000000000000000000000000000081526004016104e19061125a565b60405180910390fd5b60016000848152602001908152602001600020600101600160008581526020019081526020016000206002015481805461052390611320565b80601f016020809104026020016040519081016040528092919081815260200182805461054f90611320565b801561059c5780601f106105715761010080835404028352916020019161059c565b820191906000526020600020905b81548152906001019060200180831161057f57829003601f168201915b5050505050915091509150915091565b60045481565b60008173ffffffffffffffffffffffffffffffffffffffff1660008054906101000a900473ffffffffffffffffffffffffffffffffffffffff1673ffffffffffffffffffffffffffffffffffffffff16036106105760019050610670565b600360008373ffffffffffffffffffffffffffffffffffffffff1673ffffffffffffffffffffffffffffffffffffffff16815260200190815260200160002060009054906101000a900460ff161561066b5760029050610670565b600390505b919050565b3373ffffffffffffffffffffffffffffffffffffffff1660008054906101000a900473ffffffffffffffffffffffffffffffffffffffff1673ffffffffffffffffffffffffffffffffffffffff1614610703576040517f08c379a00000000000000000000000000000000000000000000000000000000081526004016106fa9061139d565b60405180910390fd5b6000600281111561071757610716610cb6565b5b600060149054906101000a900460ff16600281111561073957610738610cb6565b5b14610779576040517f08c379a000000000000000000000000000000000000000000000000000000000815260040161077090611409565b60405180910390fd5b6040518060600160405280600454815260200182815260200160008152506001600060045481526020019081526020016000206000820151816000015560208201518160010190805190602001906107d2929190610b9c565b5060408201518160020155905050600460008154809291906107f3906112a9565b919050555050565b60008054906101000a900473ffffffffffffffffffffffffffffffffffffffff1673ffffffffffffffffffffffffffffffffffffffff163373ffffffffffffffffffffffffffffffffffffffff161461085357600080fd5b6001600281111561086757610866610cb6565b5b600060149054906101000a900460ff16600281111561088957610888610cb6565b5b1461089357600080fd5b6002600060146101000a81548160ff021916908360028111156108b9576108b8610cb6565b5b0217905550565b60008054906101000a900473ffffffffffffffffffffffffffffffffffffffff1673ffffffffffffffffffffffffffffffffffffffff163373ffffffffffffffffffffffffffffffffffffffff161461091857600080fd5b6000600281111561092c5761092b610cb6565b5b600060149054906101000a900460ff16600281111561094e5761094d610cb6565b5b1461095857600080fd5b6001600060146101000a81548160ff0219169083600281111561097e5761097d610cb6565b5b0217905550565b60008054906101000a900473ffffffffffffffffffffffffffffffffffffffff1681565b60055481565b3373ffffffffffffffffffffffffffffffffffffffff1660008054906101000a900473ffffffffffffffffffffffffffffffffffffffff1673ffffffffffffffffffffffffffffffffffffffff1614610a3d576040517f08c379a0000000000000000000000000000000000000000000000000000000008152600401610a3490611475565b60405180910390fd5b600360008373ffffffffffffffffffffffffffffffffffffffff1673ffffffffffffffffffffffffffffffffffffffff16815260200190815260200160002060009054906101000a900460ff1615610aca576040517f08c379a0000000000000000000000000000000000000000000000000000000008152600401610ac1906114e1565b60405180910390fd5b60006002811115610ade57610add610cb6565b5b600060149054906101000a900460ff166002811115610b0057610aff610cb6565b5b14610b40576040517f08c379a0000000000000000000000000000000000000000000000000000000008152600401610b3790611573565b60405180910390fd5b6001600360008473ffffffffffffffffffffffffffffffffffffffff1673ffffffffffffffffffffffffffffffffffffffff16815260200190815260200160002060006101000a81548160ff0219169083151502179055505050565b828054610ba890611320565b90600052602060002090601f016020900481019282610bca5760008555610c11565b82601f10610be357805160ff1916838001178555610c11565b82800160010185558215610c11579182015b82811115610c10578251825591602001919060010190610bf5565b5b509050610c1e9190610c22565b5090565b5b80821115610c3b576000816000905550600101610c23565b5090565b6000604051905090565b600080fd5b600080fd5b6000819050919050565b610c6681610c53565b8114610c7157600080fd5b50565b600081359050610c8381610c5d565b92915050565b600060208284031215610c9f57610c9e610c49565b5b6000610cad84828501610c74565b91505092915050565b7f4e487b7100000000000000000000000000000000000000000000000000000000600052602160045260246000fd5b60038110610cf657610cf5610cb6565b5b50565b6000819050610d0782610ce5565b919050565b6000610d1782610cf9565b9050919050565b610d2781610d0c565b82525050565b6000602082019050610d426000830184610d1e565b92915050565b600081519050919050565b600082825260208201905092915050565b60005b83811015610d82578082015181840152602081019050610d67565b83811115610d91576000848401525b50505050565b6000601f19601f8301169050919050565b6000610db382610d48565b610dbd8185610d53565b9350610dcd818560208601610d64565b610dd681610d97565b840191505092915050565b610dea81610c53565b82525050565b60006040820190508181036000830152610e0a8185610da8565b9050610e196020830184610de1565b9392505050565b6000602082019050610e356000830184610de1565b92915050565b600073ffffffffffffffffffffffffffffffffffffffff82169050919050565b6000610e6682610e3b565b9050919050565b610e7681610e5b565b8114610e8157600080fd5b50565b600081359050610e9381610e6d565b92915050565b600060208284031215610eaf57610eae610c49565b5b6000610ebd84828501610e84565b91505092915050565b600080fd5b600080fd5b7f4e487b7100000000000000000000000000000000000000000000000000000000600052604160045260246000fd5b610f0882610d97565b810181811067ffffffffffffffff82111715610f2757610f26610ed0565b5b80604052505050565b6000610f3a610c3f565b9050610f468282610eff565b919050565b600067ffffffffffffffff821115610f6657610f65610ed0565b5b610f6f82610d97565b9050602081019050919050565b82818337600083830152505050565b6000610f9e610f9984610f4b565b610f30565b905082815260208101848484011115610fba57610fb9610ecb565b5b610fc5848285610f7c565b509392505050565b600082601f830112610fe257610fe1610ec6565b5b8135610ff2848260208601610f8b565b91505092915050565b60006020828403121561101157611010610c49565b5b600082013567ffffffffffffffff81111561102f5761102e610c4e565b5b61103b84828501610fcd565b91505092915050565b61104d81610e5b565b82525050565b60006020820190506110686000830184611044565b92915050565b6000806040838503121561108557611084610c49565b5b600061109385828601610e84565b925050602083013567ffffffffffffffff8111156110b4576110b3610c4e565b5b6110c085828601610fcd565b9150509250929050565b7f456c656374696f6e206973206e6f7420696e2070726f67726573730000000000600082015250565b6000611100601b83610d53565b915061110b826110ca565b602082019050919050565b6000602082019050818103600083015261112f816110f3565b9050919050565b7f4e6f6e20617574686f726973656420757365722063616e6e6f7420766f746500600082015250565b600061116c601f83610d53565b915061117782611136565b602082019050919050565b6000602082019050818103600083015261119b8161115f565b9050919050565b7f596f75206861766520616c726561647920766f74656400000000000000000000600082015250565b60006111d8601683610d53565b91506111e3826111a2565b602082019050919050565b60006020820190508181036000830152611207816111cb565b9050919050565b7f496e76616c69642063616e646964617465204944000000000000000000000000600082015250565b6000611244601483610d53565b915061124f8261120e565b602082019050919050565b6000602082019050818103600083015261127381611237565b9050919050565b7f4e487b7100000000000000000000000000000000000000000000000000000000600052601160045260246000fd5b60006112b482610c53565b91507fffffffffffffffffffffffffffffffffffffffffffffffffffffffffffffffff82036112e6576112e561127a565b5b600182019050919050565b7f4e487b7100000000000000000000000000000000000000000000000000000000600052602260045260246000fd5b6000600282049050600182168061133857607f821691505b60208210810361134b5761134a6112f1565b5b50919050565b7f4f6e6c79206f776e65722063616e206164642063616e64696461746573000000600082015250565b6000611387601d83610d53565b915061139282611351565b602082019050919050565b600060208201905081810360008301526113b68161137a565b9050919050565b7f456c656374696f6e2068617320616c7265616479207374617274656400000000600082015250565b60006113f3601c83610d53565b91506113fe826113bd565b602082019050919050565b60006020820190508181036000830152611422816113e6565b9050919050565b7f4f6e6c79206f776e65722063616e2061646420766f7465720000000000000000600082015250565b600061145f601883610d53565b915061146a82611429565b602082019050919050565b6000602082019050818103600083015261148e81611452565b9050919050565b7f566f74657220616c726561647920616464656400000000000000000000000000600082015250565b60006114cb601383610d53565b91506114d682611495565b602082019050919050565b600060208201905081810360008301526114fa816114be565b9050919050565b7f566f7465722063616e277420626520616464656420616674657220656c65637460008201527f696f6e2073746172746564000000000000000000000000000000000000000000602082015250565b600061155d602b83610d53565b915061156882611501565b604082019050919050565b6000602082019050818103600083015261158c81611550565b905091905056fea26469706673582212207f56d2ab4179210dee71deed98b0dcedc9c613044cb46ae02c95ff777f41a1f664736f6c634300080e0033",
  "immutableReferences": {},
  "source": "// SPDX-License-Identifier: MIT\npragma solidity >=0.4.0 <0.9.0;\n\ncontract Election {\n    enum State {\n        NotStarted,\n        InProgress,\n        Ended\n    }\n\n    struct Candidate {\n        uint256 id;\n        string name;\n        uint256 voteCount;\n    }\n\n    address public owner;\n    State public electionState;\n\n    struct Voter {\n        uint256 id;\n        string name;\n        string email;\n    }\n\n    mapping(uint256 => Candidate) candidates;\n    mapping(address => bool) voted;\n\n\n    mapping(address => bool) isVoter;\n\n    uint256 public candidatesCount = 0;\n\n    uint256 public votersCount = 0;\n\n    constructor() {\n        owner = msg.sender;\n        electionState = State.NotStarted;\n        addCandidate(\"Candidate 1\");\n        addCandidate(\"Candidate 2\");\n    }\n\n    event Voted(uint256 indexed _candidateId);\n\n    function startElection() public {\n        require(msg.sender == owner);\n        require(electionState == State.NotStarted);\n        electionState = State.InProgress;\n    }\n\n    function endElection() public {\n        require(msg.sender == owner);\n        require(electionState == State.InProgress);\n        electionState = State.Ended;\n    }\n\n    function addCandidate(string memory _name) public {\n        require(owner == msg.sender, \"Only owner can add candidates\");\n        require(\n            electionState == State.NotStarted,\n            \"Election has already started\"\n        );\n\n        candidates[candidatesCount] = Candidate(candidatesCount, _name, 0);\n        candidatesCount++;\n    }\n\n    function addVoter(address _voter,string memory email ) public {\n        require(owner == msg.sender, \"Only owner can add voter\");\n        require(!isVoter[_voter], \"Voter already added\");\n        require(\n            electionState == State.NotStarted,\n            \"Voter can't be added after election started\"\n        );\n\n        isVoter[_voter] = true;\n        // Voter[email] = email;\n    }\n    \n\n    function getRole(address _current) public view returns (uint256) {\n        if (owner == _current) {\n            return 1;\n        } else if (isVoter[_current]) {\n            return 2;\n        } else {\n            return 3;\n        }\n    }\n\n    function vote(uint256 _candidateId) public {\n        require(\n            electionState == State.InProgress,\n            \"Election is not in progress\"\n        );\n        require(isVoter[msg.sender], \"Non authorised user cannot vote\");\n        require(!voted[msg.sender], \"You have already voted\");\n        require(\n            _candidateId >= 0 && _candidateId < candidatesCount,\n            \"Invalid candidate ID\"\n        );\n\n        candidates[_candidateId].voteCount++;\n        voted[msg.sender] = true;\n\n        emit Voted(_candidateId);\n    }\n\n    function getCandidateDetails(uint256 _candidateId)\n        public\n        view\n        returns (string memory, uint256)\n    {\n        require(\n            _candidateId >= 0 && _candidateId < candidatesCount,\n            \"Invalid candidate ID\"\n        );\n        return (\n            candidates[_candidateId].name,\n            candidates[_candidateId].voteCount\n        );\n    }\n}\n",
  "sourcePath": "/home/anil/Documents/My_projects/Daap/E-vote-blockchain/E-voting-blockchain/contracts/Voting.sol",
  "compiler": {
    "name": "solc",
    "version": "0.8.14+commit.80d49f37.Emscripten.clang"
  },
  "schemaVersion": "3.4.10",
  "updatedAt": "2022-10-18T14:20:25.888Z",
  "devdoc": {
    "kind": "dev",
    "methods": {},
    "version": 1
  },
  "userdoc": {
    "kind": "user",
    "methods": {},
    "version": 1
  }
}